{
  "_format": "hh-sol-artifact-1",
  "contractName": "ProduceRegistry",
  "sourceName": "contracts/ProduceRegistry.sol",
  "abi": [
    {
      "inputs": [],
      "stateMutability": "nonpayable",
      "type": "constructor"
    },
    {
      "anonymous": false,
      "inputs": [
        {
          "indexed": true,
          "internalType": "uint256",
          "name": "batchId",
          "type": "uint256"
        },
        {
          "indexed": true,
          "internalType": "address",
          "name": "farmer",
          "type": "address"
        },
        {
          "indexed": false,
          "internalType": "string",
          "name": "produceType",
          "type": "string"
        },
        {
          "indexed": false,
          "internalType": "uint256",
          "name": "quantity",
          "type": "uint256"
        }
      ],
      "name": "BatchRegistered",
      "type": "event"
    },
    {
      "anonymous": false,
      "inputs": [
        {
          "indexed": true,
          "internalType": "uint256",
          "name": "batchId",
          "type": "uint256"
        },
        {
          "indexed": false,
          "internalType": "enum ProduceRegistry.Status",
          "name": "newStatus",
          "type": "uint8"
        }
      ],
      "name": "BatchStatusUpdated",
      "type": "event"
    },
    {
      "anonymous": false,
      "inputs": [
        {
          "indexed": true,
          "internalType": "bytes32",
          "name": "role",
          "type": "bytes32"
        },
        {
          "indexed": true,
          "internalType": "address",
          "name": "account",
          "type": "address"
        },
        {
          "indexed": true,
          "internalType": "address",
          "name": "by",
          "type": "address"
        }
      ],
      "name": "RoleGranted",
      "type": "event"
    },
    {
      "anonymous": false,
      "inputs": [
        {
          "indexed": true,
          "internalType": "bytes32",
          "name": "role",
          "type": "bytes32"
        },
        {
          "indexed": true,
          "internalType": "address",
          "name": "account",
          "type": "address"
        },
        {
          "indexed": true,
          "internalType": "address",
          "name": "by",
          "type": "address"
        }
      ],
      "name": "RoleRevoked",
      "type": "event"
    },
    {
      "inputs": [],
      "name": "ADMIN_ROLE",
      "outputs": [
        {
          "internalType": "bytes32",
          "name": "",
          "type": "bytes32"
        }
      ],
      "stateMutability": "view",
      "type": "function"
    },
    {
      "inputs": [],
      "name": "DISTRIBUTOR_ROLE",
      "outputs": [
        {
          "internalType": "bytes32",
          "name": "",
          "type": "bytes32"
        }
      ],
      "stateMutability": "view",
      "type": "function"
    },
    {
      "inputs": [],
      "name": "FARMER_ROLE",
      "outputs": [
        {
          "internalType": "bytes32",
          "name": "",
          "type": "bytes32"
        }
      ],
      "stateMutability": "view",
      "type": "function"
    },
    {
      "inputs": [],
      "name": "INSPECTOR_ROLE",
      "outputs": [
        {
          "internalType": "bytes32",
          "name": "",
          "type": "bytes32"
        }
      ],
      "stateMutability": "view",
      "type": "function"
    },
    {
      "inputs": [],
      "name": "OPERATOR_ROLE",
      "outputs": [
        {
          "internalType": "bytes32",
          "name": "",
          "type": "bytes32"
        }
      ],
      "stateMutability": "view",
      "type": "function"
    },
    {
      "inputs": [],
      "name": "RETAILER_ROLE",
      "outputs": [
        {
          "internalType": "bytes32",
          "name": "",
          "type": "bytes32"
        }
      ],
      "stateMutability": "view",
      "type": "function"
    },
    {
      "inputs": [],
      "name": "admin",
      "outputs": [
        {
          "internalType": "address",
          "name": "",
          "type": "address"
        }
      ],
      "stateMutability": "view",
      "type": "function"
    },
    {
      "inputs": [
        {
          "internalType": "uint256",
          "name": "batchId",
          "type": "uint256"
        }
      ],
      "name": "confirmDelivery",
      "outputs": [],
      "stateMutability": "nonpayable",
      "type": "function"
    },
    {
      "inputs": [],
      "name": "getAllBatchIds",
      "outputs": [
        {
          "internalType": "uint256[]",
          "name": "",
          "type": "uint256[]"
        }
      ],
      "stateMutability": "view",
      "type": "function"
    },
    {
      "inputs": [
        {
          "internalType": "uint256",
          "name": "batchId",
          "type": "uint256"
        }
      ],
      "name": "getBatch",
      "outputs": [
        {
          "components": [
            {
              "internalType": "uint256",
              "name": "batchId",
              "type": "uint256"
            },
            {
              "internalType": "string",
              "name": "produceType",
              "type": "string"
            },
            {
              "internalType": "uint256",
              "name": "quantity",
              "type": "uint256"
            },
            {
              "internalType": "address",
              "name": "farmer",
              "type": "address"
            },
            {
              "internalType": "address",
              "name": "currentHolder",
              "type": "address"
            },
            {
              "internalType": "string",
              "name": "farmLocation",
              "type": "string"
            },
            {
              "internalType": "uint256",
              "name": "harvestTimestamp",
              "type": "uint256"
            },
            {
              "internalType": "string",
              "name": "certification",
              "type": "string"
            },
            {
              "internalType": "string",
              "name": "notes",
              "type": "string"
            },
            {
              "internalType": "enum ProduceRegistry.Status",
              "name": "status",
              "type": "uint8"
            },
            {
              "internalType": "bool",
              "name": "exists",
              "type": "bool"
            }
          ],
          "internalType": "struct ProduceRegistry.Batch",
          "name": "",
          "type": "tuple"
        }
      ],
      "stateMutability": "view",
      "type": "function"
    },
    {
      "inputs": [
        {
          "internalType": "address",
          "name": "farmer",
          "type": "address"
        }
      ],
      "name": "getFarmerBatches",
      "outputs": [
        {
          "internalType": "uint256[]",
          "name": "",
          "type": "uint256[]"
        }
      ],
      "stateMutability": "view",
      "type": "function"
    },
    {
      "inputs": [
        {
          "internalType": "address",
          "name": "holder",
          "type": "address"
        }
      ],
      "name": "getHolderBatches",
      "outputs": [
        {
          "internalType": "uint256[]",
          "name": "",
          "type": "uint256[]"
        }
      ],
      "stateMutability": "view",
      "type": "function"
    },
    {
      "inputs": [
        {
          "internalType": "bytes32",
          "name": "role",
          "type": "bytes32"
        },
        {
          "internalType": "address",
          "name": "account",
          "type": "address"
        }
      ],
      "name": "grantRole",
      "outputs": [],
      "stateMutability": "nonpayable",
      "type": "function"
    },
    {
      "inputs": [
        {
          "internalType": "bytes32",
          "name": "role",
          "type": "bytes32"
        },
        {
          "internalType": "address",
          "name": "account",
          "type": "address"
        }
      ],
      "name": "hasRole",
      "outputs": [
        {
          "internalType": "bool",
          "name": "",
          "type": "bool"
        }
      ],
      "stateMutability": "view",
      "type": "function"
    },
    {
      "inputs": [
        {
          "internalType": "string",
          "name": "produceType",
          "type": "string"
        },
        {
          "internalType": "uint256",
          "name": "quantity",
          "type": "uint256"
        },
        {
          "internalType": "string",
          "name": "farmLocation",
          "type": "string"
        },
        {
          "internalType": "string",
          "name": "certification",
          "type": "string"
        },
        {
          "internalType": "string",
          "name": "notes",
          "type": "string"
        }
      ],
      "name": "registerBatch",
      "outputs": [
        {
          "internalType": "uint256",
          "name": "batchId",
          "type": "uint256"
        }
      ],
      "stateMutability": "nonpayable",
      "type": "function"
    },
    {
      "inputs": [
        {
          "internalType": "bytes32",
          "name": "role",
          "type": "bytes32"
        },
        {
          "internalType": "address",
          "name": "account",
          "type": "address"
        }
      ],
      "name": "revokeRole",
      "outputs": [],
      "stateMutability": "nonpayable",
      "type": "function"
    },
    {
      "inputs": [],
      "name": "totalBatches",
      "outputs": [
        {
          "internalType": "uint256",
          "name": "",
          "type": "uint256"
        }
      ],
      "stateMutability": "view",
      "type": "function"
    },
    {
      "inputs": [
        {
          "internalType": "uint256",
          "name": "batchId",
          "type": "uint256"
        },
        {
          "internalType": "address",
          "name": "newHolder",
          "type": "address"
        }
      ],
      "name": "updateHolder",
      "outputs": [],
      "stateMutability": "nonpayable",
      "type": "function"
    },
    {
      "inputs": [
        {
          "internalType": "uint256",
          "name": "batchId",
          "type": "uint256"
        },
        {
          "internalType": "enum ProduceRegistry.Status",
          "name": "newStatus",
          "type": "uint8"
        }
      ],
      "name": "updateStatus",
      "outputs": [],
      "stateMutability": "nonpayable",
      "type": "function"
    }
  ],
  "bytecode": "0x608060405234801561001057600080fd5b50336000806101000a81548173ffffffffffffffffffffffffffffffffffffffff021916908373ffffffffffffffffffffffffffffffffffffffff16021790555060018060007fdf8b4c520ffe197c5343c6f5aec59570151ef9a492f2c624fd45ddde6135ec42815260200190815260200160002060003373ffffffffffffffffffffffffffffffffffffffff1673ffffffffffffffffffffffffffffffffffffffff16815260200190815260200160002060006101000a81548160ff02191690831515021790555060018060007f523a704056dcd17bcf83bed8b68c59416dac1119be77755efe3bde0a64e46e0c815260200190815260200160002060003373ffffffffffffffffffffffffffffffffffffffff1673ffffffffffffffffffffffffffffffffffffffff16815260200190815260200160002060006101000a81548160ff0219169083151502179055506103e860028190555061293a806101796000396000f3fe608060405234801561001057600080fd5b50600436106101215760003560e01c80639ccf39ef116100ad578063f394397011610071578063f39439701461031e578063f5b541a61461033c578063f851a4401461035a578063fcc7515014610378578063fd84cb971461039457610121565b80639ccf39ef14610278578063bce06947146102a8578063d547741f146102c6578063e3a3c522146102e2578063f0bd87cc1461030057610121565b806344a19d33116100f457806344a19d33146101ac5780635ac44282146101dc57806369ff6abb1461020c57806375b238fc1461022a57806391d148541461024857610121565b806307237fc2146101265780632115e7bf146101565780632f2ff15d146101745780633a1b3d3114610190575b600080fd5b610140600480360381019061013b9190611a95565b6103b0565b60405161014d9190611ba0565b60405180910390f35b61015e610973565b60405161016b9190611bd4565b60405180910390f35b61018e60048036038101906101899190611c79565b610997565b005b6101aa60048036038101906101a59190611cde565b610b8a565b005b6101c660048036038101906101c19190611d1e565b610d26565b6040516101d39190611e09565b60405180910390f35b6101f660048036038101906101f19190611e2b565b610dbd565b604051610203919061208d565b60405180910390f35b6102146111b6565b6040516102219190611ba0565b60405180910390f35b6102326111cd565b60405161023f9190611bd4565b60405180910390f35b610262600480360381019061025d9190611c79565b6111f1565b60405161026f91906120be565b60405180910390f35b610292600480360381019061028d9190611d1e565b611259565b60405161029f9190611e09565b60405180910390f35b6102b06112f0565b6040516102bd9190611e09565b60405180910390f35b6102e060048036038101906102db9190611c79565b611348565b005b6102ea61153b565b6040516102f79190611bd4565b60405180910390f35b61030861155f565b6040516103159190611bd4565b60405180910390f35b610326611583565b6040516103339190611bd4565b60405180910390f35b6103446115a7565b6040516103519190611bd4565b60405180910390f35b6103626115cb565b60405161036f91906120e8565b60405180910390f35b610392600480360381019061038d9190612103565b6115f4565b005b6103ae60048036038101906103a99190611e2b565b6117d5565b005b60007ff309ffc42715a0bfccdfa0c4cac305505f15ab9b9262b7451ceea96c0cc351876001600082815260200190815260200160002060003373ffffffffffffffffffffffffffffffffffffffff1673ffffffffffffffffffffffffffffffffffffffff16815260200190815260200160002060009054906101000a900460ff16610470576040517f08c379a0000000000000000000000000000000000000000000000000000000008152600401610467906121a0565b60405180910390fd5b60008b8b9050116104b6576040517f08c379a00000000000000000000000000000000000000000000000000000000081526004016104ad9061220c565b60405180910390fd5b600089116104f9576040517f08c379a00000000000000000000000000000000000000000000000000000000081526004016104f090612278565b60405180910390fd5b6002600081548092919061050c906122c7565b9190505591506040518061016001604052808381526020018c8c8080601f016020809104026020016040519081016040528093929190818152602001838380828437600081840152601f19601f8201169050808301925050505050505081526020018a81526020013373ffffffffffffffffffffffffffffffffffffffff1681526020013373ffffffffffffffffffffffffffffffffffffffff16815260200189898080601f016020809104026020016040519081016040528093929190818152602001838380828437600081840152601f19601f82011690508083019250505050505050815260200142815260200187878080601f016020809104026020016040519081016040528093929190818152602001838380828437600081840152601f19601f82011690508083019250505050505050815260200185858080601f016020809104026020016040519081016040528093929190818152602001838380828437600081840152601f19601f820116905080830192505050505050508152602001600060048111156106a4576106a3611ef7565b5b815260200160011515815250600360008481526020019081526020016000206000820151816000015560208201518160010190816106e2919061254a565b506040820151816002015560608201518160030160006101000a81548173ffffffffffffffffffffffffffffffffffffffff021916908373ffffffffffffffffffffffffffffffffffffffff16021790555060808201518160040160006101000a81548173ffffffffffffffffffffffffffffffffffffffff021916908373ffffffffffffffffffffffffffffffffffffffff16021790555060a0820151816005019081610790919061254a565b5060c0820151816006015560e08201518160070190816107b0919061254a565b506101008201518160080190816107c7919061254a565b506101208201518160090160006101000a81548160ff021916908360048111156107f4576107f3611ef7565b5b02179055506101408201518160090160016101000a81548160ff021916908315150217905550905050600460003373ffffffffffffffffffffffffffffffffffffffff1673ffffffffffffffffffffffffffffffffffffffff168152602001908152602001600020829080600181540180825580915050600190039060005260206000200160009091909190915055600560003373ffffffffffffffffffffffffffffffffffffffff1673ffffffffffffffffffffffffffffffffffffffff16815260200190815260200160002082908060018154018082558091505060019003906000526020600020016000909190919091505560068290806001815401808255809150506001900390600052602060002001600090919091909150553373ffffffffffffffffffffffffffffffffffffffff16827feea7e8222def232deae0acf805b2846991299a7da1d540633aac3c03a35aca518d8d8d60405161095d93929190612658565b60405180910390a3509998505050505050505050565b7f27d5ccc46db01bfa5691ce092fe276221c6cd0aa6d05765b52c3ddecfa70421a81565b60008054906101000a900473ffffffffffffffffffffffffffffffffffffffff1673ffffffffffffffffffffffffffffffffffffffff163373ffffffffffffffffffffffffffffffffffffffff1614610a25576040517f08c379a0000000000000000000000000000000000000000000000000000000008152600401610a1c906126d6565b60405180910390fd5b6001600083815260200190815260200160002060008273ffffffffffffffffffffffffffffffffffffffff1673ffffffffffffffffffffffffffffffffffffffff16815260200190815260200160002060009054906101000a900460ff1615610ac3576040517f08c379a0000000000000000000000000000000000000000000000000000000008152600401610aba90612742565b60405180910390fd5b600180600084815260200190815260200160002060008373ffffffffffffffffffffffffffffffffffffffff1673ffffffffffffffffffffffffffffffffffffffff16815260200190815260200160002060006101000a81548160ff0219169083151502179055503373ffffffffffffffffffffffffffffffffffffffff168173ffffffffffffffffffffffffffffffffffffffff16837f2f8788117e7eff1d82e926ec794901d17c78024a50270940304540a733656f0d60405160405180910390a45050565b7f523a704056dcd17bcf83bed8b68c59416dac1119be77755efe3bde0a64e46e0c6001600082815260200190815260200160002060003373ffffffffffffffffffffffffffffffffffffffff1673ffffffffffffffffffffffffffffffffffffffff16815260200190815260200160002060009054906101000a900460ff16610c48576040517f08c379a0000000000000000000000000000000000000000000000000000000008152600401610c3f906121a0565b60405180910390fd5b6003600084815260200190815260200160002060090160019054906101000a900460ff16610cab576040517f08c379a0000000000000000000000000000000000000000000000000000000008152600401610ca2906127ae565b60405180910390fd5b816003600085815260200190815260200160002060090160006101000a81548160ff02191690836004811115610ce457610ce3611ef7565b5b0217905550827fcf4d4f3dcd5294f4d19269f489155c2187699f4a9fb9004b6a303752b00b282f83604051610d1991906127dd565b60405180910390a2505050565b6060600460008373ffffffffffffffffffffffffffffffffffffffff1673ffffffffffffffffffffffffffffffffffffffff168152602001908152602001600020805480602002602001604051908101604052809291908181526020018280548015610db157602002820191906000526020600020905b815481526020019060010190808311610d9d575b50505050509050919050565b610dc5611956565b6003600083815260200190815260200160002060090160019054906101000a900460ff16610e28576040517f08c379a0000000000000000000000000000000000000000000000000000000008152600401610e1f906127ae565b60405180910390fd5b600360008381526020019081526020016000206040518061016001604052908160008201548152602001600182018054610e619061236d565b80601f0160208091040260200160405190810160405280929190818152602001828054610e8d9061236d565b8015610eda5780601f10610eaf57610100808354040283529160200191610eda565b820191906000526020600020905b815481529060010190602001808311610ebd57829003601f168201915b50505050508152602001600282015481526020016003820160009054906101000a900473ffffffffffffffffffffffffffffffffffffffff1673ffffffffffffffffffffffffffffffffffffffff1673ffffffffffffffffffffffffffffffffffffffff1681526020016004820160009054906101000a900473ffffffffffffffffffffffffffffffffffffffff1673ffffffffffffffffffffffffffffffffffffffff1673ffffffffffffffffffffffffffffffffffffffff168152602001600582018054610fa99061236d565b80601f0160208091040260200160405190810160405280929190818152602001828054610fd59061236d565b80156110225780601f10610ff757610100808354040283529160200191611022565b820191906000526020600020905b81548152906001019060200180831161100557829003601f168201915b50505050508152602001600682015481526020016007820180546110459061236d565b80601f01602080910402602001604051908101604052809291908181526020018280546110719061236d565b80156110be5780601f10611093576101008083540402835291602001916110be565b820191906000526020600020905b8154815290600101906020018083116110a157829003601f168201915b505050505081526020016008820180546110d79061236d565b80601f01602080910402602001604051908101604052809291908181526020018280546111039061236d565b80156111505780601f1061112557610100808354040283529160200191611150565b820191906000526020600020905b81548152906001019060200180831161113357829003601f168201915b505050505081526020016009820160009054906101000a900460ff16600481111561117e5761117d611ef7565b5b60048111156111905761118f611ef7565b5b81526020016009820160019054906101000a900460ff1615151515815250509050919050565b60006103e86002546111c891906127f8565b905090565b7fdf8b4c520ffe197c5343c6f5aec59570151ef9a492f2c624fd45ddde6135ec4281565b60006001600084815260200190815260200160002060008373ffffffffffffffffffffffffffffffffffffffff1673ffffffffffffffffffffffffffffffffffffffff16815260200190815260200160002060009054906101000a900460ff16905092915050565b6060600560008373ffffffffffffffffffffffffffffffffffffffff1673ffffffffffffffffffffffffffffffffffffffff1681526020019081526020016000208054806020026020016040519081016040528092919081815260200182805480156112e457602002820191906000526020600020905b8154815260200190600101908083116112d0575b50505050509050919050565b6060600680548060200260200160405190810160405280929190818152602001828054801561133e57602002820191906000526020600020905b81548152602001906001019080831161132a575b5050505050905090565b60008054906101000a900473ffffffffffffffffffffffffffffffffffffffff1673ffffffffffffffffffffffffffffffffffffffff163373ffffffffffffffffffffffffffffffffffffffff16146113d6576040517f08c379a00000000000000000000000000000000000000000000000000000000081526004016113cd906126d6565b60405180910390fd5b6001600083815260200190815260200160002060008273ffffffffffffffffffffffffffffffffffffffff1673ffffffffffffffffffffffffffffffffffffffff16815260200190815260200160002060009054906101000a900460ff16611473576040517f08c379a000000000000000000000000000000000000000000000000000000000815260040161146a90612878565b60405180910390fd5b60006001600084815260200190815260200160002060008373ffffffffffffffffffffffffffffffffffffffff1673ffffffffffffffffffffffffffffffffffffffff16815260200190815260200160002060006101000a81548160ff0219169083151502179055503373ffffffffffffffffffffffffffffffffffffffff168173ffffffffffffffffffffffffffffffffffffffff16837ff6391f5c32d9c69d2a47ea670b442974b53935d1edc7fd64eb21e047a839171b60405160405180910390a45050565b7f6708279cb5b7899861c476830845b35dc693bcddf85695a204b94cda1c82583481565b7f85faced7bde13e1a7dad704b895f006e704f207617d68166b31ba2d79624862d81565b7ff309ffc42715a0bfccdfa0c4cac305505f15ab9b9262b7451ceea96c0cc3518781565b7f523a704056dcd17bcf83bed8b68c59416dac1119be77755efe3bde0a64e46e0c81565b60008060009054906101000a900473ffffffffffffffffffffffffffffffffffffffff16905090565b7f523a704056dcd17bcf83bed8b68c59416dac1119be77755efe3bde0a64e46e0c6001600082815260200190815260200160002060003373ffffffffffffffffffffffffffffffffffffffff1673ffffffffffffffffffffffffffffffffffffffff16815260200190815260200160002060009054906101000a900460ff166116b2576040517f08c379a00000000000000000000000000000000000000000000000000000000081526004016116a9906121a0565b60405180910390fd5b6003600084815260200190815260200160002060090160019054906101000a900460ff16611715576040517f08c379a000000000000000000000000000000000000000000000000000000000815260040161170c906127ae565b60405180910390fd5b816003600085815260200190815260200160002060040160006101000a81548173ffffffffffffffffffffffffffffffffffffffff021916908373ffffffffffffffffffffffffffffffffffffffff160217905550600560008373ffffffffffffffffffffffffffffffffffffffff1673ffffffffffffffffffffffffffffffffffffffff168152602001908152602001600020839080600181540180825580915050600190039060005260206000200160009091909190915055505050565b6003600082815260200190815260200160002060090160019054906101000a900460ff16611838576040517f08c379a000000000000000000000000000000000000000000000000000000000815260040161182f906127ae565b60405180910390fd5b6003600082815260200190815260200160002060040160009054906101000a900473ffffffffffffffffffffffffffffffffffffffff1673ffffffffffffffffffffffffffffffffffffffff163373ffffffffffffffffffffffffffffffffffffffff16146118dc576040517f08c379a00000000000000000000000000000000000000000000000000000000081526004016118d3906128e4565b60405180910390fd5b600380600083815260200190815260200160002060090160006101000a81548160ff0219169083600481111561191557611914611ef7565b5b0217905550807fcf4d4f3dcd5294f4d19269f489155c2187699f4a9fb9004b6a303752b00b282f600360405161194b91906127dd565b60405180910390a250565b604051806101600160405280600081526020016060815260200160008152602001600073ffffffffffffffffffffffffffffffffffffffff168152602001600073ffffffffffffffffffffffffffffffffffffffff16815260200160608152602001600081526020016060815260200160608152602001600060048111156119e1576119e0611ef7565b5b81526020016000151581525090565b600080fd5b600080fd5b600080fd5b600080fd5b600080fd5b60008083601f840112611a1f57611a1e6119fa565b5b8235905067ffffffffffffffff811115611a3c57611a3b6119ff565b5b602083019150836001820283011115611a5857611a57611a04565b5b9250929050565b6000819050919050565b611a7281611a5f565b8114611a7d57600080fd5b50565b600081359050611a8f81611a69565b92915050565b600080600080600080600080600060a08a8c031215611ab757611ab66119f0565b5b60008a013567ffffffffffffffff811115611ad557611ad46119f5565b5b611ae18c828d01611a09565b99509950506020611af48c828d01611a80565b97505060408a013567ffffffffffffffff811115611b1557611b146119f5565b5b611b218c828d01611a09565b965096505060608a013567ffffffffffffffff811115611b4457611b436119f5565b5b611b508c828d01611a09565b945094505060808a013567ffffffffffffffff811115611b7357611b726119f5565b5b611b7f8c828d01611a09565b92509250509295985092959850929598565b611b9a81611a5f565b82525050565b6000602082019050611bb56000830184611b91565b92915050565b6000819050919050565b611bce81611bbb565b82525050565b6000602082019050611be96000830184611bc5565b92915050565b611bf881611bbb565b8114611c0357600080fd5b50565b600081359050611c1581611bef565b92915050565b600073ffffffffffffffffffffffffffffffffffffffff82169050919050565b6000611c4682611c1b565b9050919050565b611c5681611c3b565b8114611c6157600080fd5b50565b600081359050611c7381611c4d565b92915050565b60008060408385031215611c9057611c8f6119f0565b5b6000611c9e85828601611c06565b9250506020611caf85828601611c64565b9150509250929050565b60058110611cc657600080fd5b50565b600081359050611cd881611cb9565b92915050565b60008060408385031215611cf557611cf46119f0565b5b6000611d0385828601611a80565b9250506020611d1485828601611cc9565b9150509250929050565b600060208284031215611d3457611d336119f0565b5b6000611d4284828501611c64565b91505092915050565b600081519050919050565b600082825260208201905092915050565b6000819050602082019050919050565b611d8081611a5f565b82525050565b6000611d928383611d77565b60208301905092915050565b6000602082019050919050565b6000611db682611d4b565b611dc08185611d56565b9350611dcb83611d67565b8060005b83811015611dfc578151611de38882611d86565b9750611dee83611d9e565b925050600181019050611dcf565b5085935050505092915050565b60006020820190508181036000830152611e238184611dab565b905092915050565b600060208284031215611e4157611e406119f0565b5b6000611e4f84828501611a80565b91505092915050565b600081519050919050565b600082825260208201905092915050565b60005b83811015611e92578082015181840152602081019050611e77565b60008484015250505050565b6000601f19601f8301169050919050565b6000611eba82611e58565b611ec48185611e63565b9350611ed4818560208601611e74565b611edd81611e9e565b840191505092915050565b611ef181611c3b565b82525050565b7f4e487b7100000000000000000000000000000000000000000000000000000000600052602160045260246000fd5b60058110611f3757611f36611ef7565b5b50565b6000819050611f4882611f26565b919050565b6000611f5882611f3a565b9050919050565b611f6881611f4d565b82525050565b60008115159050919050565b611f8381611f6e565b82525050565b600061016083016000830151611fa26000860182611d77565b5060208301518482036020860152611fba8282611eaf565b9150506040830151611fcf6040860182611d77565b506060830151611fe26060860182611ee8565b506080830151611ff56080860182611ee8565b5060a083015184820360a086015261200d8282611eaf565b91505060c083015161202260c0860182611d77565b5060e083015184820360e086015261203a8282611eaf565b9150506101008301518482036101008601526120568282611eaf565b91505061012083015161206d610120860182611f5f565b50610140830151612082610140860182611f7a565b508091505092915050565b600060208201905081810360008301526120a78184611f89565b905092915050565b6120b881611f6e565b82525050565b60006020820190506120d360008301846120af565b92915050565b6120e281611c3b565b82525050565b60006020820190506120fd60008301846120d9565b92915050565b6000806040838503121561211a576121196119f0565b5b600061212885828601611a80565b925050602061213985828601611c64565b9150509250929050565b600082825260208201905092915050565b7f416363657373436f6e74726f6c3a206d697373696e6720726f6c650000000000600082015250565b600061218a601b83612143565b915061219582612154565b602082019050919050565b600060208201905081810360008301526121b98161217d565b9050919050565b7f50726f6475636520747970652072657175697265640000000000000000000000600082015250565b60006121f6601583612143565b9150612201826121c0565b602082019050919050565b60006020820190508181036000830152612225816121e9565b9050919050565b7f5175616e74697479206d757374206265203e2030000000000000000000000000600082015250565b6000612262601483612143565b915061226d8261222c565b602082019050919050565b6000602082019050818103600083015261229181612255565b9050919050565b7f4e487b7100000000000000000000000000000000000000000000000000000000600052601160045260246000fd5b60006122d282611a5f565b91507fffffffffffffffffffffffffffffffffffffffffffffffffffffffffffffffff820361230457612303612298565b5b600182019050919050565b7f4e487b7100000000000000000000000000000000000000000000000000000000600052604160045260246000fd5b7f4e487b7100000000000000000000000000000000000000000000000000000000600052602260045260246000fd5b6000600282049050600182168061238557607f821691505b6020821081036123985761239761233e565b5b50919050565b60008190508160005260206000209050919050565b60006020601f8301049050919050565b600082821b905092915050565b6000600883026124007fffffffffffffffffffffffffffffffffffffffffffffffffffffffffffffffff826123c3565b61240a86836123c3565b95508019841693508086168417925050509392505050565b6000819050919050565b600061244761244261243d84611a5f565b612422565b611a5f565b9050919050565b6000819050919050565b6124618361242c565b61247561246d8261244e565b8484546123d0565b825550505050565b600090565b61248a61247d565b612495818484612458565b505050565b5b818110156124b9576124ae600082612482565b60018101905061249b565b5050565b601f8211156124fe576124cf8161239e565b6124d8846123b3565b810160208510156124e7578190505b6124fb6124f3856123b3565b83018261249a565b50505b505050565b600082821c905092915050565b600061252160001984600802612503565b1980831691505092915050565b600061253a8383612510565b9150826002028217905092915050565b61255382611e58565b67ffffffffffffffff81111561256c5761256b61230f565b5b612576825461236d565b6125818282856124bd565b600060209050601f8311600181146125b457600084156125a2578287015190505b6125ac858261252e565b865550612614565b601f1984166125c28661239e565b60005b828110156125ea578489015182556001820191506020850194506020810190506125c5565b868310156126075784890151612603601f891682612510565b8355505b6001600288020188555050505b505050505050565b82818337600083830152505050565b60006126378385612143565b935061264483858461261c565b61264d83611e9e565b840190509392505050565b6000604082019050818103600083015261267381858761262b565b90506126826020830184611b91565b949350505050565b7f416363657373436f6e74726f6c3a206e6f742061646d696e0000000000000000600082015250565b60006126c0601883612143565b91506126cb8261268a565b602082019050919050565b600060208201905081810360008301526126ef816126b3565b9050919050565b7f526f6c6520616c7265616479206772616e746564000000000000000000000000600082015250565b600061272c601483612143565b9150612737826126f6565b602082019050919050565b6000602082019050818103600083015261275b8161271f565b9050919050565b7f4261746368206e6f7420666f756e640000000000000000000000000000000000600082015250565b6000612798600f83612143565b91506127a382612762565b602082019050919050565b600060208201905081810360008301526127c78161278b565b9050919050565b6127d781611f4d565b82525050565b60006020820190506127f260008301846127ce565b92915050565b600061280382611a5f565b915061280e83611a5f565b925082820390508181111561282657612825612298565b5b92915050565b7f526f6c65206e6f74206772616e74656400000000000000000000000000000000600082015250565b6000612862601083612143565b915061286d8261282c565b602082019050919050565b6000602082019050818103600083015261289181612855565b9050919050565b7f4e6f742063757272656e7420686f6c6465720000000000000000000000000000600082015250565b60006128ce601283612143565b91506128d982612898565b602082019050919050565b600060208201905081810360008301526128fd816128c1565b905091905056fea26469706673582212205004481992617b18323fd9d1951545335536716831b5d288bdd30908f5e3651264736f6c63430008130033",
  "linkReferences": {},
  "deployedLinkReferences": {}
}