{
  "_format": "hh-sol-artifact-1",
  "contractName": "QualityVerifier",
  "sourceName": "contracts/QualityVerifier.sol",
  "abi": [
    {
      "inputs": [
        {
          "internalType": "address",
          "name": "registryAddress",
          "type": "address"
        }
      ],
      "stateMutability": "nonpayable",
      "type": "constructor"
    },
    {
      "anonymous": false,
      "inputs": [
        {
          "indexed": true,
          "internalType": "uint256",
          "name": "certId",
          "type": "uint256"
        },
        {
          "indexed": true,
          "internalType": "uint256",
          "name": "batchId",
          "type": "uint256"
        },
        {
          "indexed": false,
          "internalType": "enum QualityVerifier.Grade",
          "name": "grade",
          "type": "uint8"
        },
        {
          "indexed": false,
          "internalType": "bool",
          "name": "passed",
          "type": "bool"
        },
        {
          "indexed": false,
          "internalType": "string",
          "name": "ipfsHash",
          "type": "string"
        }
      ],
      "name": "CertificateIssued",
      "type": "event"
    },
    {
      "anonymous": false,
      "inputs": [
        {
          "indexed": true,
          "internalType": "bytes32",
          "name": "role",
          "type": "bytes32"
        },
        {
          "indexed": true,
          "internalType": "address",
          "name": "account",
          "type": "address"
        },
        {
          "indexed": true,
          "internalType": "address",
          "name": "by",
          "type": "address"
        }
      ],
      "name": "RoleGranted",
      "type": "event"
    },
    {
      "anonymous": false,
      "inputs": [
        {
          "indexed": true,
          "internalType": "bytes32",
          "name": "role",
          "type": "bytes32"
        },
        {
          "indexed": true,
          "internalType": "address",
          "name": "account",
          "type": "address"
        },
        {
          "indexed": true,
          "internalType": "address",
          "name": "by",
          "type": "address"
        }
      ],
      "name": "RoleRevoked",
      "type": "event"
    },
    {
      "inputs": [],
      "name": "ADMIN_ROLE",
      "outputs": [
        {
          "internalType": "bytes32",
          "name": "",
          "type": "bytes32"
        }
      ],
      "stateMutability": "view",
      "type": "function"
    },
    {
      "inputs": [],
      "name": "DISTRIBUTOR_ROLE",
      "outputs": [
        {
          "internalType": "bytes32",
          "name": "",
          "type": "bytes32"
        }
      ],
      "stateMutability": "view",
      "type": "function"
    },
    {
      "inputs": [],
      "name": "FARMER_ROLE",
      "outputs": [
        {
          "internalType": "bytes32",
          "name": "",
          "type": "bytes32"
        }
      ],
      "stateMutability": "view",
      "type": "function"
    },
    {
      "inputs": [],
      "name": "INSPECTOR_ROLE",
      "outputs": [
        {
          "internalType": "bytes32",
          "name": "",
          "type": "bytes32"
        }
      ],
      "stateMutability": "view",
      "type": "function"
    },
    {
      "inputs": [],
      "name": "OPERATOR_ROLE",
      "outputs": [
        {
          "internalType": "bytes32",
          "name": "",
          "type": "bytes32"
        }
      ],
      "stateMutability": "view",
      "type": "function"
    },
    {
      "inputs": [],
      "name": "RETAILER_ROLE",
      "outputs": [
        {
          "internalType": "bytes32",
          "name": "",
          "type": "bytes32"
        }
      ],
      "stateMutability": "view",
      "type": "function"
    },
    {
      "inputs": [],
      "name": "admin",
      "outputs": [
        {
          "internalType": "address",
          "name": "",
          "type": "address"
        }
      ],
      "stateMutability": "view",
      "type": "function"
    },
    {
      "inputs": [
        {
          "internalType": "uint256",
          "name": "batchId",
          "type": "uint256"
        }
      ],
      "name": "getBatchCertificate",
      "outputs": [
        {
          "components": [
            {
              "internalType": "uint256",
              "name": "certId",
              "type": "uint256"
            },
            {
              "internalType": "uint256",
              "name": "batchId",
              "type": "uint256"
            },
            {
              "internalType": "address",
              "name": "inspector",
              "type": "address"
            },
            {
              "internalType": "enum QualityVerifier.Grade",
              "name": "grade",
              "type": "uint8"
            },
            {
              "internalType": "uint256",
              "name": "issuedAt",
              "type": "uint256"
            },
            {
              "internalType": "string",
              "name": "ipfsHash",
              "type": "string"
            },
            {
              "internalType": "string",
              "name": "remarks",
              "type": "string"
            },
            {
              "internalType": "bool",
              "name": "passed",
              "type": "bool"
            }
          ],
          "internalType": "struct QualityVerifier.Certificate",
          "name": "",
          "type": "tuple"
        }
      ],
      "stateMutability": "view",
      "type": "function"
    },
    {
      "inputs": [
        {
          "internalType": "uint256",
          "name": "certId",
          "type": "uint256"
        }
      ],
      "name": "getCertificate",
      "outputs": [
        {
          "components": [
            {
              "internalType": "uint256",
              "name": "certId",
              "type": "uint256"
            },
            {
              "internalType": "uint256",
              "name": "batchId",
              "type": "uint256"
            },
            {
              "internalType": "address",
              "name": "inspector",
              "type": "address"
            },
            {
              "internalType": "enum QualityVerifier.Grade",
              "name": "grade",
              "type": "uint8"
            },
            {
              "internalType": "uint256",
              "name": "issuedAt",
              "type": "uint256"
            },
            {
              "internalType": "string",
              "name": "ipfsHash",
              "type": "string"
            },
            {
              "internalType": "string",
              "name": "remarks",
              "type": "string"
            },
            {
              "internalType": "bool",
              "name": "passed",
              "type": "bool"
            }
          ],
          "internalType": "struct QualityVerifier.Certificate",
          "name": "",
          "type": "tuple"
        }
      ],
      "stateMutability": "view",
      "type": "function"
    },
    {
      "inputs": [
        {
          "internalType": "bytes32",
          "name": "role",
          "type": "bytes32"
        },
        {
          "internalType": "address",
          "name": "account",
          "type": "address"
        }
      ],
      "name": "grantRole",
      "outputs": [],
      "stateMutability": "nonpayable",
      "type": "function"
    },
    {
      "inputs": [
        {
          "internalType": "bytes32",
          "name": "role",
          "type": "bytes32"
        },
        {
          "internalType": "address",
          "name": "account",
          "type": "address"
        }
      ],
      "name": "hasRole",
      "outputs": [
        {
          "internalType": "bool",
          "name": "",
          "type": "bool"
        }
      ],
      "stateMutability": "view",
      "type": "function"
    },
    {
      "inputs": [
        {
          "internalType": "uint256",
          "name": "batchId",
          "type": "uint256"
        },
        {
          "internalType": "enum QualityVerifier.Grade",
          "name": "grade",
          "type": "uint8"
        },
        {
          "internalType": "string",
          "name": "ipfsHash",
          "type": "string"
        },
        {
          "internalType": "string",
          "name": "remarks",
          "type": "string"
        }
      ],
      "name": "issueCertificate",
      "outputs": [
        {
          "internalType": "uint256",
          "name": "certId",
          "type": "uint256"
        }
      ],
      "stateMutability": "nonpayable",
      "type": "function"
    },
    {
      "inputs": [
        {
          "internalType": "bytes32",
          "name": "role",
          "type": "bytes32"
        },
        {
          "internalType": "address",
          "name": "account",
          "type": "address"
        }
      ],
      "name": "revokeRole",
      "outputs": [],
      "stateMutability": "nonpayable",
      "type": "function"
    }
  ],
  "bytecode": "0x60806040523480156200001157600080fd5b50604051620024dc380380620024dc833981810160405281019062000037919062000239565b336000806101000a81548173ffffffffffffffffffffffffffffffffffffffff021916908373ffffffffffffffffffffffffffffffffffffffff16021790555060018060007fdf8b4c520ffe197c5343c6f5aec59570151ef9a492f2c624fd45ddde6135ec42815260200190815260200160002060003373ffffffffffffffffffffffffffffffffffffffff1673ffffffffffffffffffffffffffffffffffffffff16815260200190815260200160002060006101000a81548160ff02191690831515021790555060018060007f523a704056dcd17bcf83bed8b68c59416dac1119be77755efe3bde0a64e46e0c815260200190815260200160002060003373ffffffffffffffffffffffffffffffffffffffff1673ffffffffffffffffffffffffffffffffffffffff16815260200190815260200160002060006101000a81548160ff02191690831515021790555080600360006101000a81548173ffffffffffffffffffffffffffffffffffffffff021916908373ffffffffffffffffffffffffffffffffffffffff160217905550506200026b565b600080fd5b600073ffffffffffffffffffffffffffffffffffffffff82169050919050565b60006200020182620001d4565b9050919050565b6200021381620001f4565b81146200021f57600080fd5b50565b600081519050620002338162000208565b92915050565b600060208284031215620002525762000251620001cf565b5b6000620002628482850162000222565b91505092915050565b612261806200027b6000396000f3fe608060405234801561001057600080fd5b50600436106100cf5760003560e01c8063df835bfd1161008c578063f394397011610066578063f394397014610214578063f5b541a614610232578063f851a44014610250578063fb3ce5e91461026e576100cf565b8063df835bfd146101a8578063e3a3c522146101d8578063f0bd87cc146101f6576100cf565b80632115e7bf146100d45780632f2ff15d146100f257806351640fee1461010e57806375b238fc1461013e57806391d148541461015c578063d547741f1461018c575b600080fd5b6100dc61029e565b6040516100e99190611246565b60405180910390f35b61010c600480360381019061010791906112ff565b6102c2565b005b61012860048036038101906101239190611375565b6104b5565b6040516101359190611599565b60405180910390f35b61014661072a565b6040516101539190611246565b60405180910390f35b610176600480360381019061017191906112ff565b61074e565b60405161018391906115ca565b60405180910390f35b6101a660048036038101906101a191906112ff565b6107b6565b005b6101c260048036038101906101bd919061166f565b6109a9565b6040516101cf9190611725565b60405180910390f35b6101e0610e8d565b6040516101ed9190611246565b60405180910390f35b6101fe610eb1565b60405161020b9190611246565b60405180910390f35b61021c610ed5565b6040516102299190611246565b60405180910390f35b61023a610ef9565b6040516102479190611246565b60405180910390f35b610258610f1d565b604051610265919061174f565b60405180910390f35b61028860048036038101906102839190611375565b610f46565b6040516102959190611599565b60405180910390f35b7f27d5ccc46db01bfa5691ce092fe276221c6cd0aa6d05765b52c3ddecfa70421a81565b60008054906101000a900473ffffffffffffffffffffffffffffffffffffffff1673ffffffffffffffffffffffffffffffffffffffff163373ffffffffffffffffffffffffffffffffffffffff1614610350576040517f08c379a0000000000000000000000000000000000000000000000000000000008152600401610347906117c7565b60405180910390fd5b6001600083815260200190815260200160002060008273ffffffffffffffffffffffffffffffffffffffff1673ffffffffffffffffffffffffffffffffffffffff16815260200190815260200160002060009054906101000a900460ff16156103ee576040517f08c379a00000000000000000000000000000000000000000000000000000000081526004016103e590611833565b60405180910390fd5b600180600084815260200190815260200160002060008373ffffffffffffffffffffffffffffffffffffffff1673ffffffffffffffffffffffffffffffffffffffff16815260200190815260200160002060006101000a81548160ff0219169083151502179055503373ffffffffffffffffffffffffffffffffffffffff168173ffffffffffffffffffffffffffffffffffffffff16837f2f8788117e7eff1d82e926ec794901d17c78024a50270940304540a733656f0d60405160405180910390a45050565b6104bd6111be565b6000600460008481526020019081526020016000206000015403610516576040517f08c379a000000000000000000000000000000000000000000000000000000000815260040161050d9061189f565b60405180910390fd5b600460008381526020019081526020016000206040518061010001604052908160008201548152602001600182015481526020016002820160009054906101000a900473ffffffffffffffffffffffffffffffffffffffff1673ffffffffffffffffffffffffffffffffffffffff1673ffffffffffffffffffffffffffffffffffffffff1681526020016002820160149054906101000a900460ff1660038111156105c4576105c36113c0565b5b60038111156105d6576105d56113c0565b5b8152602001600382015481526020016004820180546105f4906118ee565b80601f0160208091040260200160405190810160405280929190818152602001828054610620906118ee565b801561066d5780601f106106425761010080835404028352916020019161066d565b820191906000526020600020905b81548152906001019060200180831161065057829003601f168201915b50505050508152602001600582018054610686906118ee565b80601f01602080910402602001604051908101604052809291908181526020018280546106b2906118ee565b80156106ff5780601f106106d4576101008083540402835291602001916106ff565b820191906000526020600020905b8154815290600101906020018083116106e257829003601f168201915b505050505081526020016006820160009054906101000a900460ff1615151515815250509050919050565b7fdf8b4c520ffe197c5343c6f5aec59570151ef9a492f2c624fd45ddde6135ec4281565b60006001600084815260200190815260200160002060008373ffffffffffffffffffffffffffffffffffffffff1673ffffffffffffffffffffffffffffffffffffffff16815260200190815260200160002060009054906101000a900460ff16905092915050565b60008054906101000a900473ffffffffffffffffffffffffffffffffffffffff1673ffffffffffffffffffffffffffffffffffffffff163373ffffffffffffffffffffffffffffffffffffffff1614610844576040517f08c379a000000000000000000000000000000000000000000000000000000000815260040161083b906117c7565b60405180910390fd5b6001600083815260200190815260200160002060008273ffffffffffffffffffffffffffffffffffffffff1673ffffffffffffffffffffffffffffffffffffffff16815260200190815260200160002060009054906101000a900460ff166108e1576040517f08c379a00000000000000000000000000000000000000000000000000000000081526004016108d89061196b565b60405180910390fd5b60006001600084815260200190815260200160002060008373ffffffffffffffffffffffffffffffffffffffff1673ffffffffffffffffffffffffffffffffffffffff16815260200190815260200160002060006101000a81548160ff0219169083151502179055503373ffffffffffffffffffffffffffffffffffffffff168173ffffffffffffffffffffffffffffffffffffffff16837ff6391f5c32d9c69d2a47ea670b442974b53935d1edc7fd64eb21e047a839171b60405160405180910390a45050565b60007f6708279cb5b7899861c476830845b35dc693bcddf85695a204b94cda1c8258346001600082815260200190815260200160002060003373ffffffffffffffffffffffffffffffffffffffff1673ffffffffffffffffffffffffffffffffffffffff16815260200190815260200160002060009054906101000a900460ff16610a69576040517f08c379a0000000000000000000000000000000000000000000000000000000008152600401610a60906119d7565b60405180910390fd5b600360009054906101000a900473ffffffffffffffffffffffffffffffffffffffff1673ffffffffffffffffffffffffffffffffffffffff16635ac44282896040518263ffffffff1660e01b8152600401610ac49190611725565b600060405180830381865afa158015610ae1573d6000803e3d6000fd5b505050506040513d6000823e3d601f19601f82011682018060405250810190610b0a9190611d19565b506000600560008a81526020019081526020016000205414610b61576040517f08c379a0000000000000000000000000000000000000000000000000000000008152600401610b5890611dae565b60405180910390fd5b600260008154610b7090611dfd565b91905081905591506000600380811115610b8d57610b8c6113c0565b5b886003811115610ba057610b9f6113c0565b5b141590506040518061010001604052808481526020018a81526020013373ffffffffffffffffffffffffffffffffffffffff168152602001896003811115610beb57610bea6113c0565b5b815260200142815260200188888080601f016020809104026020016040519081016040528093929190818152602001838380828437600081840152601f19601f82011690508083019250505050505050815260200186868080601f016020809104026020016040519081016040528093929190818152602001838380828437600081840152601f19601f82011690508083019250505050505050815260200182151581525060046000858152602001908152602001600020600082015181600001556020820151816001015560408201518160020160006101000a81548173ffffffffffffffffffffffffffffffffffffffff021916908373ffffffffffffffffffffffffffffffffffffffff16021790555060608201518160020160146101000a81548160ff02191690836003811115610d2957610d286113c0565b5b02179055506080820151816003015560a0820151816004019081610d4d9190611ff1565b5060c0820151816005019081610d639190611ff1565b5060e08201518160060160006101000a81548160ff02191690831515021790555090505082600560008b815260200190815260200160002081905550600081610dad576004610db0565b60025b9050600360009054906101000a900473ffffffffffffffffffffffffffffffffffffffff1673ffffffffffffffffffffffffffffffffffffffff16633a1b3d318b836040518363ffffffff1660e01b8152600401610e0f92919061210b565b600060405180830381600087803b158015610e2957600080fd5b505af1158015610e3d573d6000803e3d6000fd5b5050505089847faa105bc35a066931f6c7a2dddb4de6ad665d559a14b67f23244a6ec1bbc654568b858c8c604051610e78949392919061217f565b60405180910390a35050509695505050505050565b7f6708279cb5b7899861c476830845b35dc693bcddf85695a204b94cda1c82583481565b7f85faced7bde13e1a7dad704b895f006e704f207617d68166b31ba2d79624862d81565b7ff309ffc42715a0bfccdfa0c4cac305505f15ab9b9262b7451ceea96c0cc3518781565b7f523a704056dcd17bcf83bed8b68c59416dac1119be77755efe3bde0a64e46e0c81565b60008060009054906101000a900473ffffffffffffffffffffffffffffffffffffffff16905090565b610f4e6111be565b60006005600084815260200190815260200160002054905060008103610fa9576040517f08c379a0000000000000000000000000000000000000000000000000000000008152600401610fa09061220b565b60405180910390fd5b600460008281526020019081526020016000206040518061010001604052908160008201548152602001600182015481526020016002820160009054906101000a900473ffffffffffffffffffffffffffffffffffffffff1673ffffffffffffffffffffffffffffffffffffffff1673ffffffffffffffffffffffffffffffffffffffff1681526020016002820160149054906101000a900460ff166003811115611057576110566113c0565b5b6003811115611069576110686113c0565b5b815260200160038201548152602001600482018054611087906118ee565b80601f01602080910402602001604051908101604052809291908181526020018280546110b3906118ee565b80156111005780601f106110d557610100808354040283529160200191611100565b820191906000526020600020905b8154815290600101906020018083116110e357829003601f168201915b50505050508152602001600582018054611119906118ee565b80601f0160208091040260200160405190810160405280929190818152602001828054611145906118ee565b80156111925780601f1061116757610100808354040283529160200191611192565b820191906000526020600020905b81548152906001019060200180831161117557829003601f168201915b505050505081526020016006820160009054906101000a900460ff161515151581525050915050919050565b6040518061010001604052806000815260200160008152602001600073ffffffffffffffffffffffffffffffffffffffff16815260200160006003811115611209576112086113c0565b5b81526020016000815260200160608152602001606081526020016000151581525090565b6000819050919050565b6112408161122d565b82525050565b600060208201905061125b6000830184611237565b92915050565b6000604051905090565b600080fd5b600080fd5b61127e8161122d565b811461128957600080fd5b50565b60008135905061129b81611275565b92915050565b600073ffffffffffffffffffffffffffffffffffffffff82169050919050565b60006112cc826112a1565b9050919050565b6112dc816112c1565b81146112e757600080fd5b50565b6000813590506112f9816112d3565b92915050565b600080604083850312156113165761131561126b565b5b60006113248582860161128c565b9250506020611335858286016112ea565b9150509250929050565b6000819050919050565b6113528161133f565b811461135d57600080fd5b50565b60008135905061136f81611349565b92915050565b60006020828403121561138b5761138a61126b565b5b600061139984828501611360565b91505092915050565b6113ab8161133f565b82525050565b6113ba816112c1565b82525050565b7f4e487b7100000000000000000000000000000000000000000000000000000000600052602160045260246000fd5b60048110611400576113ff6113c0565b5b50565b6000819050611411826113ef565b919050565b600061142182611403565b9050919050565b61143181611416565b82525050565b600081519050919050565b600082825260208201905092915050565b60005b83811015611471578082015181840152602081019050611456565b60008484015250505050565b6000601f19601f8301169050919050565b600061149982611437565b6114a38185611442565b93506114b3818560208601611453565b6114bc8161147d565b840191505092915050565b60008115159050919050565b6114dc816114c7565b82525050565b6000610100830160008301516114fb60008601826113a2565b50602083015161150e60208601826113a2565b50604083015161152160408601826113b1565b5060608301516115346060860182611428565b50608083015161154760808601826113a2565b5060a083015184820360a086015261155f828261148e565b91505060c083015184820360c0860152611579828261148e565b91505060e083015161158e60e08601826114d3565b508091505092915050565b600060208201905081810360008301526115b381846114e2565b905092915050565b6115c4816114c7565b82525050565b60006020820190506115df60008301846115bb565b92915050565b600481106115f257600080fd5b50565b600081359050611604816115e5565b92915050565b600080fd5b600080fd5b600080fd5b60008083601f84011261162f5761162e61160a565b5b8235905067ffffffffffffffff81111561164c5761164b61160f565b5b60208301915083600182028301111561166857611667611614565b5b9250929050565b6000806000806000806080878903121561168c5761168b61126b565b5b600061169a89828a01611360565b96505060206116ab89828a016115f5565b955050604087013567ffffffffffffffff8111156116cc576116cb611270565b5b6116d889828a01611619565b9450945050606087013567ffffffffffffffff8111156116fb576116fa611270565b5b61170789828a01611619565b92509250509295509295509295565b61171f8161133f565b82525050565b600060208201905061173a6000830184611716565b92915050565b611749816112c1565b82525050565b60006020820190506117646000830184611740565b92915050565b600082825260208201905092915050565b7f416363657373436f6e74726f6c3a206e6f742061646d696e0000000000000000600082015250565b60006117b160188361176a565b91506117bc8261177b565b602082019050919050565b600060208201905081810360008301526117e0816117a4565b9050919050565b7f526f6c6520616c7265616479206772616e746564000000000000000000000000600082015250565b600061181d60148361176a565b9150611828826117e7565b602082019050919050565b6000602082019050818103600083015261184c81611810565b9050919050565b7f4365727469666963617465206e6f7420666f756e640000000000000000000000600082015250565b600061188960158361176a565b915061189482611853565b602082019050919050565b600060208201905081810360008301526118b88161187c565b9050919050565b7f4e487b7100000000000000000000000000000000000000000000000000000000600052602260045260246000fd5b6000600282049050600182168061190657607f821691505b602082108103611919576119186118bf565b5b50919050565b7f526f6c65206e6f74206772616e74656400000000000000000000000000000000600082015250565b600061195560108361176a565b91506119608261191f565b602082019050919050565b6000602082019050818103600083015261198481611948565b9050919050565b7f416363657373436f6e74726f6c3a206d697373696e6720726f6c650000000000600082015250565b60006119c1601b8361176a565b91506119cc8261198b565b602082019050919050565b600060208201905081810360008301526119f0816119b4565b9050919050565b600080fd5b7f4e487b7100000000000000000000000000000000000000000000000000000000600052604160045260246000fd5b611a348261147d565b810181811067ffffffffffffffff82111715611a5357611a526119fc565b5b80604052505050565b6000611a66611261565b9050611a728282611a2b565b919050565b600080fd5b600081519050611a8b81611349565b92915050565b600080fd5b600067ffffffffffffffff821115611ab157611ab06119fc565b5b611aba8261147d565b9050602081019050919050565b6000611ada611ad584611a96565b611a5c565b905082815260208101848484011115611af657611af5611a91565b5b611b01848285611453565b509392505050565b600082601f830112611b1e57611b1d61160a565b5b8151611b2e848260208601611ac7565b91505092915050565b600081519050611b46816112d3565b92915050565b60058110611b5957600080fd5b50565b600081519050611b6b81611b4c565b92915050565b611b7a816114c7565b8114611b8557600080fd5b50565b600081519050611b9781611b71565b92915050565b60006101608284031215611bb457611bb36119f7565b5b611bbf610160611a5c565b90506000611bcf84828501611a7c565b600083015250602082015167ffffffffffffffff811115611bf357611bf2611a77565b5b611bff84828501611b09565b6020830152506040611c1384828501611a7c565b6040830152506060611c2784828501611b37565b6060830152506080611c3b84828501611b37565b60808301525060a082015167ffffffffffffffff811115611c5f57611c5e611a77565b5b611c6b84828501611b09565b60a08301525060c0611c7f84828501611a7c565b60c08301525060e082015167ffffffffffffffff811115611ca357611ca2611a77565b5b611caf84828501611b09565b60e08301525061010082015167ffffffffffffffff811115611cd457611cd3611a77565b5b611ce084828501611b09565b61010083015250610120611cf684828501611b5c565b61012083015250610140611d0c84828501611b88565b6101408301525092915050565b600060208284031215611d2f57611d2e61126b565b5b600082015167ffffffffffffffff811115611d4d57611d4c611270565b5b611d5984828501611b9d565b91505092915050565b7f436572746966696361746520616c726561647920697373756564000000000000600082015250565b6000611d98601a8361176a565b9150611da382611d62565b602082019050919050565b60006020820190508181036000830152611dc781611d8b565b9050919050565b7f4e487b7100000000000000000000000000000000000000000000000000000000600052601160045260246000fd5b6000611e088261133f565b91507fffffffffffffffffffffffffffffffffffffffffffffffffffffffffffffffff8203611e3a57611e39611dce565b5b600182019050919050565b60008190508160005260206000209050919050565b60006020601f8301049050919050565b600082821b905092915050565b600060088302611ea77fffffffffffffffffffffffffffffffffffffffffffffffffffffffffffffffff82611e6a565b611eb18683611e6a565b95508019841693508086168417925050509392505050565b6000819050919050565b6000611eee611ee9611ee48461133f565b611ec9565b61133f565b9050919050565b6000819050919050565b611f0883611ed3565b611f1c611f1482611ef5565b848454611e77565b825550505050565b600090565b611f31611f24565b611f3c818484611eff565b505050565b5b81811015611f6057611f55600082611f29565b600181019050611f42565b5050565b601f821115611fa557611f7681611e45565b611f7f84611e5a565b81016020851015611f8e578190505b611fa2611f9a85611e5a565b830182611f41565b50505b505050565b600082821c905092915050565b6000611fc860001984600802611faa565b1980831691505092915050565b6000611fe18383611fb7565b9150826002028217905092915050565b611ffa82611437565b67ffffffffffffffff811115612013576120126119fc565b5b61201d82546118ee565b612028828285611f64565b600060209050601f83116001811461205b5760008415612049578287015190505b6120538582611fd5565b8655506120bb565b601f19841661206986611e45565b60005b828110156120915784890151825560018201915060208501945060208101905061206c565b868310156120ae57848901516120aa601f891682611fb7565b8355505b6001600288020188555050505b505050505050565b600581106120d4576120d36113c0565b5b50565b60008190506120e5826120c3565b919050565b60006120f5826120d7565b9050919050565b612105816120ea565b82525050565b60006040820190506121206000830185611716565b61212d60208301846120fc565b9392505050565b61213d81611416565b82525050565b82818337600083830152505050565b600061215e838561176a565b935061216b838584612143565b6121748361147d565b840190509392505050565b60006060820190506121946000830187612134565b6121a160208301866115bb565b81810360408301526121b4818486612152565b905095945050505050565b7f4e6f206365727469666963617465000000000000000000000000000000000000600082015250565b60006121f5600e8361176a565b9150612200826121bf565b602082019050919050565b60006020820190508181036000830152612224816121e8565b905091905056fea2646970667358221220860de9731006b0d87a74ed1f85b2ed79d2aea031628d25a235c763da40c8316464736f6c63430008130033",
  "linkReferences": {},
  "deployedLinkReferences": {}
}