{
  "_format": "hh-sol-artifact-1",
  "contractName": "TrackTransfer",
  "sourceName": "contracts/TrackTransfer.sol",
  "abi": [
    {
      "inputs": [
        {
          "internalType": "address",
          "name": "registryAddress",
          "type": "address"
        }
      ],
      "stateMutability": "nonpayable",
      "type": "constructor"
    },
    {
      "anonymous": false,
      "inputs": [
        {
          "indexed": true,
          "internalType": "bytes32",
          "name": "role",
          "type": "bytes32"
        },
        {
          "indexed": true,
          "internalType": "address",
          "name": "account",
          "type": "address"
        },
        {
          "indexed": true,
          "internalType": "address",
          "name": "by",
          "type": "address"
        }
      ],
      "name": "RoleGranted",
      "type": "event"
    },
    {
      "anonymous": false,
      "inputs": [
        {
          "indexed": true,
          "internalType": "bytes32",
          "name": "role",
          "type": "bytes32"
        },
        {
          "indexed": true,
          "internalType": "address",
          "name": "account",
          "type": "address"
        },
        {
          "indexed": true,
          "internalType": "address",
          "name": "by",
          "type": "address"
        }
      ],
      "name": "RoleRevoked",
      "type": "event"
    },
    {
      "anonymous": false,
      "inputs": [
        {
          "indexed": true,
          "internalType": "uint256",
          "name": "transferId",
          "type": "uint256"
        },
        {
          "indexed": true,
          "internalType": "uint256",
          "name": "batchId",
          "type": "uint256"
        },
        {
          "indexed": true,
          "internalType": "address",
          "name": "from",
          "type": "address"
        },
        {
          "indexed": false,
          "internalType": "address",
          "name": "to",
          "type": "address"
        },
        {
          "indexed": false,
          "internalType": "enum TrackTransfer.TransportMode",
          "name": "transport",
          "type": "uint8"
        }
      ],
      "name": "TransferLogged",
      "type": "event"
    },
    {
      "inputs": [],
      "name": "ADMIN_ROLE",
      "outputs": [
        {
          "internalType": "bytes32",
          "name": "",
          "type": "bytes32"
        }
      ],
      "stateMutability": "view",
      "type": "function"
    },
    {
      "inputs": [],
      "name": "DISTRIBUTOR_ROLE",
      "outputs": [
        {
          "internalType": "bytes32",
          "name": "",
          "type": "bytes32"
        }
      ],
      "stateMutability": "view",
      "type": "function"
    },
    {
      "inputs": [],
      "name": "FARMER_ROLE",
      "outputs": [
        {
          "internalType": "bytes32",
          "name": "",
          "type": "bytes32"
        }
      ],
      "stateMutability": "view",
      "type": "function"
    },
    {
      "inputs": [],
      "name": "INSPECTOR_ROLE",
      "outputs": [
        {
          "internalType": "bytes32",
          "name": "",
          "type": "bytes32"
        }
      ],
      "stateMutability": "view",
      "type": "function"
    },
    {
      "inputs": [],
      "name": "OPERATOR_ROLE",
      "outputs": [
        {
          "internalType": "bytes32",
          "name": "",
          "type": "bytes32"
        }
      ],
      "stateMutability": "view",
      "type": "function"
    },
    {
      "inputs": [],
      "name": "RETAILER_ROLE",
      "outputs": [
        {
          "internalType": "bytes32",
          "name": "",
          "type": "bytes32"
        }
      ],
      "stateMutability": "view",
      "type": "function"
    },
    {
      "inputs": [],
      "name": "admin",
      "outputs": [
        {
          "internalType": "address",
          "name": "",
          "type": "address"
        }
      ],
      "stateMutability": "view",
      "type": "function"
    },
    {
      "inputs": [
        {
          "internalType": "uint256",
          "name": "batchId",
          "type": "uint256"
        }
      ],
      "name": "getBatchHistory",
      "outputs": [
        {
          "components": [
            {
              "internalType": "uint256",
              "name": "transferId",
              "type": "uint256"
            },
            {
              "internalType": "uint256",
              "name": "batchId",
              "type": "uint256"
            },
            {
              "internalType": "address",
              "name": "from",
              "type": "address"
            },
            {
              "internalType": "address",
              "name": "to",
              "type": "address"
            },
            {
              "internalType": "enum TrackTransfer.TransportMode",
              "name": "transport",
              "type": "uint8"
            },
            {
              "internalType": "int16",
              "name": "temperature",
              "type": "int16"
            },
            {
              "internalType": "uint256",
              "name": "timestamp",
              "type": "uint256"
            },
            {
              "internalType": "string",
              "name": "location",
              "type": "string"
            },
            {
              "internalType": "string",
              "name": "notes",
              "type": "string"
            }
          ],
          "internalType": "struct TrackTransfer.Transfer[]",
          "name": "",
          "type": "tuple[]"
        }
      ],
      "stateMutability": "view",
      "type": "function"
    },
    {
      "inputs": [
        {
          "internalType": "uint256",
          "name": "batchId",
          "type": "uint256"
        }
      ],
      "name": "getTransferCount",
      "outputs": [
        {
          "internalType": "uint256",
          "name": "",
          "type": "uint256"
        }
      ],
      "stateMutability": "view",
      "type": "function"
    },
    {
      "inputs": [
        {
          "internalType": "bytes32",
          "name": "role",
          "type": "bytes32"
        },
        {
          "internalType": "address",
          "name": "account",
          "type": "address"
        }
      ],
      "name": "grantRole",
      "outputs": [],
      "stateMutability": "nonpayable",
      "type": "function"
    },
    {
      "inputs": [
        {
          "internalType": "bytes32",
          "name": "role",
          "type": "bytes32"
        },
        {
          "internalType": "address",
          "name": "account",
          "type": "address"
        }
      ],
      "name": "hasRole",
      "outputs": [
        {
          "internalType": "bool",
          "name": "",
          "type": "bool"
        }
      ],
      "stateMutability": "view",
      "type": "function"
    },
    {
      "inputs": [
        {
          "internalType": "uint256",
          "name": "batchId",
          "type": "uint256"
        },
        {
          "internalType": "address",
          "name": "to",
          "type": "address"
        },
        {
          "internalType": "enum TrackTransfer.TransportMode",
          "name": "transport",
          "type": "uint8"
        },
        {
          "internalType": "int16",
          "name": "temperature",
          "type": "int16"
        },
        {
          "internalType": "string",
          "name": "location",
          "type": "string"
        },
        {
          "internalType": "string",
          "name": "notes",
          "type": "string"
        }
      ],
      "name": "logTransfer",
      "outputs": [
        {
          "internalType": "uint256",
          "name": "transferId",
          "type": "uint256"
        }
      ],
      "stateMutability": "nonpayable",
      "type": "function"
    },
    {
      "inputs": [
        {
          "internalType": "bytes32",
          "name": "role",
          "type": "bytes32"
        },
        {
          "internalType": "address",
          "name": "account",
          "type": "address"
        }
      ],
      "name": "revokeRole",
      "outputs": [],
      "stateMutability": "nonpayable",
      "type": "function"
    }
  ],
  "bytecode": "0x60806040523480156200001157600080fd5b50604051620024ed380380620024ed833981810160405281019062000037919062000239565b336000806101000a81548173ffffffffffffffffffffffffffffffffffffffff021916908373ffffffffffffffffffffffffffffffffffffffff16021790555060018060007fdf8b4c520ffe197c5343c6f5aec59570151ef9a492f2c624fd45ddde6135ec42815260200190815260200160002060003373ffffffffffffffffffffffffffffffffffffffff1673ffffffffffffffffffffffffffffffffffffffff16815260200190815260200160002060006101000a81548160ff02191690831515021790555060018060007f523a704056dcd17bcf83bed8b68c59416dac1119be77755efe3bde0a64e46e0c815260200190815260200160002060003373ffffffffffffffffffffffffffffffffffffffff1673ffffffffffffffffffffffffffffffffffffffff16815260200190815260200160002060006101000a81548160ff02191690831515021790555080600360006101000a81548173ffffffffffffffffffffffffffffffffffffffff021916908373ffffffffffffffffffffffffffffffffffffffff160217905550506200026b565b600080fd5b600073ffffffffffffffffffffffffffffffffffffffff82169050919050565b60006200020182620001d4565b9050919050565b6200021381620001f4565b81146200021f57600080fd5b50565b600081519050620002338162000208565b92915050565b600060208284031215620002525762000251620001cf565b5b6000620002628482850162000222565b91505092915050565b612272806200027b6000396000f3fe608060405234801561001057600080fd5b50600436106100ce5760003560e01c8063c7a8ccb11161008c578063f0bd87cc11610066578063f0bd87cc14610225578063f394397014610243578063f5b541a614610261578063f851a4401461027f576100ce565b8063c7a8ccb1146101bb578063d547741f146101eb578063e3a3c52214610207576100ce565b80623a4a0f146100d35780632115e7bf146101035780632f2ff15d14610121578063640ccc161461013d57806375b238fc1461016d57806391d148541461018b575b600080fd5b6100ed60048036038101906100e89190611154565b61029d565b6040516100fa9190611190565b60405180910390f35b61010b6102bd565b60405161011891906111c4565b60405180910390f35b61013b60048036038101906101369190611269565b6102e1565b005b6101576004803603810190610152919061136c565b6104d4565b6040516101649190611190565b60405180910390f35b610175610b19565b60405161018291906111c4565b60405180910390f35b6101a560048036038101906101a09190611269565b610b3d565b6040516101b29190611456565b60405180910390f35b6101d560048036038101906101d09190611154565b610ba5565b6040516101e29190611733565b60405180910390f35b61020560048036038101906102009190611269565b610e5e565b005b61020f611051565b60405161021c91906111c4565b60405180910390f35b61022d611075565b60405161023a91906111c4565b60405180910390f35b61024b611099565b60405161025891906111c4565b60405180910390f35b6102696110bd565b60405161027691906111c4565b60405180910390f35b6102876110e1565b6040516102949190611764565b60405180910390f35b600060046000838152602001908152602001600020805490509050919050565b7f27d5ccc46db01bfa5691ce092fe276221c6cd0aa6d05765b52c3ddecfa70421a81565b60008054906101000a900473ffffffffffffffffffffffffffffffffffffffff1673ffffffffffffffffffffffffffffffffffffffff163373ffffffffffffffffffffffffffffffffffffffff161461036f576040517f08c379a0000000000000000000000000000000000000000000000000000000008152600401610366906117dc565b60405180910390fd5b6001600083815260200190815260200160002060008273ffffffffffffffffffffffffffffffffffffffff1673ffffffffffffffffffffffffffffffffffffffff16815260200190815260200160002060009054906101000a900460ff161561040d576040517f08c379a000000000000000000000000000000000000000000000000000000000815260040161040490611848565b60405180910390fd5b600180600084815260200190815260200160002060008373ffffffffffffffffffffffffffffffffffffffff1673ffffffffffffffffffffffffffffffffffffffff16815260200190815260200160002060006101000a81548160ff0219169083151502179055503373ffffffffffffffffffffffffffffffffffffffff168173ffffffffffffffffffffffffffffffffffffffff16837f2f8788117e7eff1d82e926ec794901d17c78024a50270940304540a733656f0d60405160405180910390a45050565b60008073ffffffffffffffffffffffffffffffffffffffff168873ffffffffffffffffffffffffffffffffffffffff1603610544576040517f08c379a000000000000000000000000000000000000000000000000000000000815260040161053b906118b4565b60405180910390fd5b3373ffffffffffffffffffffffffffffffffffffffff168873ffffffffffffffffffffffffffffffffffffffff16036105b2576040517f08c379a00000000000000000000000000000000000000000000000000000000081526004016105a990611920565b60405180910390fd5b6000600360009054906101000a900473ffffffffffffffffffffffffffffffffffffffff1673ffffffffffffffffffffffffffffffffffffffff16635ac442828b6040518263ffffffff1660e01b815260040161060f9190611190565b600060405180830381865afa15801561062c573d6000803e3d6000fd5b505050506040513d6000823e3d601f19601f820116820180604052508101906106559190611c62565b905080610140015161069c576040517f08c379a000000000000000000000000000000000000000000000000000000000815260040161069390611cf7565b60405180910390fd5b3373ffffffffffffffffffffffffffffffffffffffff16816080015173ffffffffffffffffffffffffffffffffffffffff161461070e576040517f08c379a000000000000000000000000000000000000000000000000000000000815260040161070590611d89565b60405180910390fd5b60026000815461071d90611dd8565b9190508190559150600460008b81526020019081526020016000206040518061012001604052808481526020018c81526020013373ffffffffffffffffffffffffffffffffffffffff1681526020018b73ffffffffffffffffffffffffffffffffffffffff1681526020018a600381111561079b5761079a6114bb565b5b81526020018960010b815260200142815260200188888080601f016020809104026020016040519081016040528093929190818152602001838380828437600081840152601f19601f82011690508083019250505050505050815260200186868080601f016020809104026020016040519081016040528093929190818152602001838380828437600081840152601f19601f820116905080830192505050505050508152509080600181540180825580915050600190039060005260206000209060070201600090919091909150600082015181600001556020820151816001015560408201518160020160006101000a81548173ffffffffffffffffffffffffffffffffffffffff021916908373ffffffffffffffffffffffffffffffffffffffff16021790555060608201518160030160006101000a81548173ffffffffffffffffffffffffffffffffffffffff021916908373ffffffffffffffffffffffffffffffffffffffff16021790555060808201518160030160146101000a81548160ff02191690836003811115610937576109366114bb565b5b021790555060a08201518160030160156101000a81548161ffff021916908360010b61ffff16021790555060c0820151816004015560e0820151816005019081610981919061202c565b50610100820151816006019081610998919061202c565b505050600360009054906101000a900473ffffffffffffffffffffffffffffffffffffffff1673ffffffffffffffffffffffffffffffffffffffff16633a1b3d318b60016040518363ffffffff1660e01b81526004016109f9929190612146565b600060405180830381600087803b158015610a1357600080fd5b505af1158015610a27573d6000803e3d6000fd5b50505050600360009054906101000a900473ffffffffffffffffffffffffffffffffffffffff1673ffffffffffffffffffffffffffffffffffffffff1663fcc751508b8b6040518363ffffffff1660e01b8152600401610a8892919061216f565b600060405180830381600087803b158015610aa257600080fd5b505af1158015610ab6573d6000803e3d6000fd5b505050503373ffffffffffffffffffffffffffffffffffffffff168a837ff08376d2036d92525f6838ee868aaa54d2d501641ad1899198143dac9663cb068c8c604051610b049291906121a7565b60405180910390a45098975050505050505050565b7fdf8b4c520ffe197c5343c6f5aec59570151ef9a492f2c624fd45ddde6135ec4281565b60006001600084815260200190815260200160002060008373ffffffffffffffffffffffffffffffffffffffff1673ffffffffffffffffffffffffffffffffffffffff16815260200190815260200160002060009054906101000a900460ff16905092915050565b606060046000838152602001908152602001600020805480602002602001604051908101604052809291908181526020016000905b82821015610e5357838290600052602060002090600702016040518061012001604052908160008201548152602001600182015481526020016002820160009054906101000a900473ffffffffffffffffffffffffffffffffffffffff1673ffffffffffffffffffffffffffffffffffffffff1673ffffffffffffffffffffffffffffffffffffffff1681526020016003820160009054906101000a900473ffffffffffffffffffffffffffffffffffffffff1673ffffffffffffffffffffffffffffffffffffffff1673ffffffffffffffffffffffffffffffffffffffff1681526020016003820160149054906101000a900460ff166003811115610ce357610ce26114bb565b5b6003811115610cf557610cf46114bb565b5b81526020016003820160159054906101000a900460010b60010b60010b815260200160048201548152602001600582018054610d3090611e4f565b80601f0160208091040260200160405190810160405280929190818152602001828054610d5c90611e4f565b8015610da95780601f10610d7e57610100808354040283529160200191610da9565b820191906000526020600020905b815481529060010190602001808311610d8c57829003601f168201915b50505050508152602001600682018054610dc290611e4f565b80601f0160208091040260200160405190810160405280929190818152602001828054610dee90611e4f565b8015610e3b5780601f10610e1057610100808354040283529160200191610e3b565b820191906000526020600020905b815481529060010190602001808311610e1e57829003601f168201915b50505050508152505081526020019060010190610bda565b505050509050919050565b60008054906101000a900473ffffffffffffffffffffffffffffffffffffffff1673ffffffffffffffffffffffffffffffffffffffff163373ffffffffffffffffffffffffffffffffffffffff1614610eec576040517f08c379a0000000000000000000000000000000000000000000000000000000008152600401610ee3906117dc565b60405180910390fd5b6001600083815260200190815260200160002060008273ffffffffffffffffffffffffffffffffffffffff1673ffffffffffffffffffffffffffffffffffffffff16815260200190815260200160002060009054906101000a900460ff16610f89576040517f08c379a0000000000000000000000000000000000000000000000000000000008152600401610f809061221c565b60405180910390fd5b60006001600084815260200190815260200160002060008373ffffffffffffffffffffffffffffffffffffffff1673ffffffffffffffffffffffffffffffffffffffff16815260200190815260200160002060006101000a81548160ff0219169083151502179055503373ffffffffffffffffffffffffffffffffffffffff168173ffffffffffffffffffffffffffffffffffffffff16837ff6391f5c32d9c69d2a47ea670b442974b53935d1edc7fd64eb21e047a839171b60405160405180910390a45050565b7f6708279cb5b7899861c476830845b35dc693bcddf85695a204b94cda1c82583481565b7f85faced7bde13e1a7dad704b895f006e704f207617d68166b31ba2d79624862d81565b7ff309ffc42715a0bfccdfa0c4cac305505f15ab9b9262b7451ceea96c0cc3518781565b7f523a704056dcd17bcf83bed8b68c59416dac1119be77755efe3bde0a64e46e0c81565b60008060009054906101000a900473ffffffffffffffffffffffffffffffffffffffff16905090565b6000604051905090565b600080fd5b600080fd5b6000819050919050565b6111318161111e565b811461113c57600080fd5b50565b60008135905061114e81611128565b92915050565b60006020828403121561116a57611169611114565b5b60006111788482850161113f565b91505092915050565b61118a8161111e565b82525050565b60006020820190506111a56000830184611181565b92915050565b6000819050919050565b6111be816111ab565b82525050565b60006020820190506111d960008301846111b5565b92915050565b6111e8816111ab565b81146111f357600080fd5b50565b600081359050611205816111df565b92915050565b600073ffffffffffffffffffffffffffffffffffffffff82169050919050565b60006112368261120b565b9050919050565b6112468161122b565b811461125157600080fd5b50565b6000813590506112638161123d565b92915050565b600080604083850312156112805761127f611114565b5b600061128e858286016111f6565b925050602061129f85828601611254565b9150509250929050565b600481106112b657600080fd5b50565b6000813590506112c8816112a9565b92915050565b60008160010b9050919050565b6112e4816112ce565b81146112ef57600080fd5b50565b600081359050611301816112db565b92915050565b600080fd5b600080fd5b600080fd5b60008083601f84011261132c5761132b611307565b5b8235905067ffffffffffffffff8111156113495761134861130c565b5b60208301915083600182028301111561136557611364611311565b5b9250929050565b60008060008060008060008060c0898b03121561138c5761138b611114565b5b600061139a8b828c0161113f565b98505060206113ab8b828c01611254565b97505060406113bc8b828c016112b9565b96505060606113cd8b828c016112f2565b955050608089013567ffffffffffffffff8111156113ee576113ed611119565b5b6113fa8b828c01611316565b945094505060a089013567ffffffffffffffff81111561141d5761141c611119565b5b6114298b828c01611316565b92509250509295985092959890939650565b60008115159050919050565b6114508161143b565b82525050565b600060208201905061146b6000830184611447565b92915050565b600081519050919050565b600082825260208201905092915050565b6000819050602082019050919050565b6114a68161111e565b82525050565b6114b58161122b565b82525050565b7f4e487b7100000000000000000000000000000000000000000000000000000000600052602160045260246000fd5b600481106114fb576114fa6114bb565b5b50565b600081905061150c826114ea565b919050565b600061151c826114fe565b9050919050565b61152c81611511565b82525050565b61153b816112ce565b82525050565b600081519050919050565b600082825260208201905092915050565b60005b8381101561157b578082015181840152602081019050611560565b60008484015250505050565b6000601f19601f8301169050919050565b60006115a382611541565b6115ad818561154c565b93506115bd81856020860161155d565b6115c681611587565b840191505092915050565b6000610120830160008301516115ea600086018261149d565b5060208301516115fd602086018261149d565b50604083015161161060408601826114ac565b50606083015161162360608601826114ac565b5060808301516116366080860182611523565b5060a083015161164960a0860182611532565b5060c083015161165c60c086018261149d565b5060e083015184820360e08601526116748282611598565b9150506101008301518482036101008601526116908282611598565b9150508091505092915050565b60006116a983836115d1565b905092915050565b6000602082019050919050565b60006116c982611471565b6116d3818561147c565b9350836020820285016116e58561148d565b8060005b858110156117215784840389528151611702858261169d565b945061170d836116b1565b925060208a019950506001810190506116e9565b50829750879550505050505092915050565b6000602082019050818103600083015261174d81846116be565b905092915050565b61175e8161122b565b82525050565b60006020820190506117796000830184611755565b92915050565b600082825260208201905092915050565b7f416363657373436f6e74726f6c3a206e6f742061646d696e0000000000000000600082015250565b60006117c660188361177f565b91506117d182611790565b602082019050919050565b600060208201905081810360008301526117f5816117b9565b9050919050565b7f526f6c6520616c7265616479206772616e746564000000000000000000000000600082015250565b600061183260148361177f565b915061183d826117fc565b602082019050919050565b6000602082019050818103600083015261186181611825565b9050919050565b7f496e76616c696420726563697069656e74000000000000000000000000000000600082015250565b600061189e60118361177f565b91506118a982611868565b602082019050919050565b600060208201905081810360008301526118cd81611891565b9050919050565b7f43616e6e6f74207472616e7366657220746f20796f757273656c660000000000600082015250565b600061190a601b8361177f565b9150611915826118d4565b602082019050919050565b60006020820190508181036000830152611939816118fd565b9050919050565b600080fd5b7f4e487b7100000000000000000000000000000000000000000000000000000000600052604160045260246000fd5b61197d82611587565b810181811067ffffffffffffffff8211171561199c5761199b611945565b5b80604052505050565b60006119af61110a565b90506119bb8282611974565b919050565b600080fd5b6000815190506119d481611128565b92915050565b600080fd5b600067ffffffffffffffff8211156119fa576119f9611945565b5b611a0382611587565b9050602081019050919050565b6000611a23611a1e846119df565b6119a5565b905082815260208101848484011115611a3f57611a3e6119da565b5b611a4a84828561155d565b509392505050565b600082601f830112611a6757611a66611307565b5b8151611a77848260208601611a10565b91505092915050565b600081519050611a8f8161123d565b92915050565b60058110611aa257600080fd5b50565b600081519050611ab481611a95565b92915050565b611ac38161143b565b8114611ace57600080fd5b50565b600081519050611ae081611aba565b92915050565b60006101608284031215611afd57611afc611940565b5b611b086101606119a5565b90506000611b18848285016119c5565b600083015250602082015167ffffffffffffffff811115611b3c57611b3b6119c0565b5b611b4884828501611a52565b6020830152506040611b5c848285016119c5565b6040830152506060611b7084828501611a80565b6060830152506080611b8484828501611a80565b60808301525060a082015167ffffffffffffffff811115611ba857611ba76119c0565b5b611bb484828501611a52565b60a08301525060c0611bc8848285016119c5565b60c08301525060e082015167ffffffffffffffff811115611bec57611beb6119c0565b5b611bf884828501611a52565b60e08301525061010082015167ffffffffffffffff811115611c1d57611c1c6119c0565b5b611c2984828501611a52565b61010083015250610120611c3f84828501611aa5565b61012083015250610140611c5584828501611ad1565b6101408301525092915050565b600060208284031215611c7857611c77611114565b5b600082015167ffffffffffffffff811115611c9657611c95611119565b5b611ca284828501611ae6565b91505092915050565b7f4261746368206e6f7420666f756e640000000000000000000000000000000000600082015250565b6000611ce1600f8361177f565b9150611cec82611cab565b602082019050919050565b60006020820190508181036000830152611d1081611cd4565b9050919050565b7f556e617574686f72697a65643a20796f7520617265206e6f742074686520637560008201527f7272656e7420686f6c646572206f662074686973206261746368000000000000602082015250565b6000611d73603a8361177f565b9150611d7e82611d17565b604082019050919050565b60006020820190508181036000830152611da281611d66565b9050919050565b7f4e487b7100000000000000000000000000000000000000000000000000000000600052601160045260246000fd5b6000611de38261111e565b91507fffffffffffffffffffffffffffffffffffffffffffffffffffffffffffffffff8203611e1557611e14611da9565b5b600182019050919050565b7f4e487b7100000000000000000000000000000000000000000000000000000000600052602260045260246000fd5b60006002820490506001821680611e6757607f821691505b602082108103611e7a57611e79611e20565b5b50919050565b60008190508160005260206000209050919050565b60006020601f8301049050919050565b600082821b905092915050565b600060088302611ee27fffffffffffffffffffffffffffffffffffffffffffffffffffffffffffffffff82611ea5565b611eec8683611ea5565b95508019841693508086168417925050509392505050565b6000819050919050565b6000611f29611f24611f1f8461111e565b611f04565b61111e565b9050919050565b6000819050919050565b611f4383611f0e565b611f57611f4f82611f30565b848454611eb2565b825550505050565b600090565b611f6c611f5f565b611f77818484611f3a565b505050565b5b81811015611f9b57611f90600082611f64565b600181019050611f7d565b5050565b601f821115611fe057611fb181611e80565b611fba84611e95565b81016020851015611fc9578190505b611fdd611fd585611e95565b830182611f7c565b50505b505050565b600082821c905092915050565b600061200360001984600802611fe5565b1980831691505092915050565b600061201c8383611ff2565b9150826002028217905092915050565b61203582611541565b67ffffffffffffffff81111561204e5761204d611945565b5b6120588254611e4f565b612063828285611f9f565b600060209050601f8311600181146120965760008415612084578287015190505b61208e8582612010565b8655506120f6565b601f1984166120a486611e80565b60005b828110156120cc578489015182556001820191506020850194506020810190506120a7565b868310156120e957848901516120e5601f891682611ff2565b8355505b6001600288020188555050505b505050505050565b6005811061210f5761210e6114bb565b5b50565b6000819050612120826120fe565b919050565b600061213082612112565b9050919050565b61214081612125565b82525050565b600060408201905061215b6000830185611181565b6121686020830184612137565b9392505050565b60006040820190506121846000830185611181565b6121916020830184611755565b9392505050565b6121a181611511565b82525050565b60006040820190506121bc6000830185611755565b6121c96020830184612198565b9392505050565b7f526f6c65206e6f74206772616e74656400000000000000000000000000000000600082015250565b600061220660108361177f565b9150612211826121d0565b602082019050919050565b60006020820190508181036000830152612235816121f9565b905091905056fea2646970667358221220ee12511346bc6a08324c5eca1c7d3f52e7fc70aecc10eeb00599bfaeeaa49ab364736f6c63430008130033",
  "linkReferences": {},
  "deployedLinkReferences": {}
}